:100000000C9403010C942D010C942D010C942D01E2
:100010000C942D010C942D010C942D010C942D01A8
:100020000C942D010C942D010C942D010C942D0198
:100030000C942D010C942D010C942D010C942D0188
:100040000C942D010C942D010C942D010C942D0178
:100050000C942D010C942D010C942D010C94040A88
:100060000C942D010C94740B0C944A0B0C942D01E0
:100070000C942D010C942D010C942D010C942D0148
:100080000C942D010C942D010C942D010C942D0138
:100090000C94200B0C94F60A0C942D010C942D0159
:1000A0000C942D010C942D010C942D010C942D0118
:1000B0000C942D010C942D010C942D010C942D0108
:1000C0000C942D010C942D010C942D010C94CC0A50
:1000D0000C94A20A0C942D010C94780A0C944E0AEC
:1000E0000C942D01000020002300260029002C0084
:1000F0002F00320000010000030106010901000089
:100100002100240027002A002D00300033000101C7
:100110000000040107010A01000022002500280058
:100120002B002E00310034000201000005010801FF
:100130000B0105050505070508080808020202026B
:100140000A0A080804040404010101010101010173
:100150000303030303030303040707070C0C0C0C3E
:100160000C0C0C0C02020202060606060606060627
:100170000B0B0B0B0B0B0B0B0102102020080810B4
:100180002040102040800201020108040201010207
:1001900004081020408080402010080402018004E0
:1001A000020180402010080402010804020101023B
:1001B0000408102040800102040810204080000044
:1001C0000A0B02090C0D0E080703040100000000D1
:1001D000000000000000000000000000000000001F
:1001E00000000000000000000000121110000000DC
:1001F00000000000000000000000000000000000FF
:10020000000000009E0B11241FBECFEFD1E2DEBF25
:10021000CDBF20E1A4E8B6E001C01D92AF39B2071E
:10022000E1F716E0A0E0B2E0ECEFFCE200E00BBF8B
:1002300002C007900D92A438B107D9F711E0C3E0CE
:10024000D1E004C02197FE010E947F11C230D10786
:10025000C9F70E94800C0C947C160C9400000F933C
:100260001F93CF93DF93EC01EA89FB8909958111F4
:1002700014C008851985EC89FD89CE01099591E0A6
:100280008927800F912F911D6A817B810E943511F2
:10029000DF91CF911F910F9108958FEF9FEFF8CFCE
:1002A000FC01808591850196628173810E943511E0
:1002B000918780870895FC018681978101966281EC
:1002C00073810E943511978386830895FC019FB73F
:1002D000F89481E042855385228133814217530788
:1002E00009F080E09FBF0895FC019FB7F89481E07A
:1002F00022853385232B09F080E09FBF08952FB717
:10030000F894FC01828593852FBF0895FF920F9387
:100310001F93CF93DF93EC018B01FFB6F894EC8928
:10032000FD890995811122C08A859B8501978017D7
:100330009107E0F08E819F81800F911F6A817B8100
:100340000E9435114C815D81849F9001859F300D05
:10035000949F300D112488819981820F931FFFBED5
:10036000DF91CF911F910F91FF90089590E080E071
:10037000F6CFCF93DF93EC019A01AB01E889F989BD
:1003800082E08083211581EE38074105510581F116
:1003900060E079E08DE390E00E945D112150310929
:1003A000410951095695479537952795EC85FD8567
:1003B0001082EE85FF852083188EEC89FD8986E00A
:1003C0008083EA89FB89808180618083EA89FB8957
:1003D000808188608083EA89FB898081806880834E
:1003E000EA89FB8980818F7D8083DF91CF91089599
:1003F000E889F989108220E1D9CF8150823108F053
:1004000058C0E82FF0E0E95FFD4F0C947F11270200
:100410002B0219021F02230259022E023402380253
:100420003E02420246024C025002590254025A0253
:100430005E02809180008F77809380000895809184
:1004400080008F7DF9CF80918000877FF5CF84B5C4
:100450008F7784BD089584B58F7DFBCF8091B000E8
:100460008F778093B00008958091B0008F7DF9CF91
:10047000809190008F7780939000089580919000F4
:100480008F7DF9CF80919000877FF5CF8091A0007C
:100490008F778093A00008958091A0008F7DF9CF81
:1004A0008091A000877FF5CF809120018F77809386
:1004B00020010895809120018F7DF9CF8091200146
:1004C000877FF5CF1F93CF93DF93282F30E0F9017B
:1004D000E254FE4F8491F901E858FE4FD491F9019E
:1004E000EE5CFE4FC491CC23A9F0162F81110E941F
:1004F000FD01EC2FF0E0EE0FFF1FE85EFE4FA5912F
:10050000B4918FB7F894EC91111108C0D095DE2307
:10051000DC938FBFDF91CF911F910895DE2BF8CF31
:10052000CF93DF9390E0FC01E858FE4F24918E5C5E
:100530009E4FFC0184918823D1F090E0880F991F91
:10054000FC01E250FF4FA591B491FC01E85EFE4F23
:10055000C591D49161110EC09FB7F8948C91E22F90
:10056000E0958E238C932881E223E8839FBFDF915F
:10057000CF9108958FB7F894EC91E22BEC938FBF55
:10058000F6CF3FB7F8948091E80D9091E90DA091D6
:10059000EA0DB091EB0D26B5A89B05C02F3F19F0D1
:1005A0000196A11DB11D3FBFBA2FA92F982F8827F3
:1005B000BC01CD01620F711D811D911D42E0660FCE
:1005C000771F881F991F4A95D1F708958F929F92A0
:1005D000AF92BF92CF92DF92EF92FF924B015C01FC
:1005E0000E94C1026B017C010E94C1026C197D094D
:1005F0008E099F09683E734081059105A8F321E0AB
:10060000821A9108A108B10888EEC80E83E0D81EAE
:10061000E11CF11C81149104A104B10429F7FF909D
:10062000EF90DF90CF90BF90AF909F908F90089504
:10063000AF92BF92CF92DF92EF92FF920F931F93F0
:10064000CF93DF936C017B018B01040F151FEB012E
:100650005E01AE18BF08C017D10759F06991D601E5
:10066000ED91FC910190F081E02DC6010995892B57
:1006700079F7C501DF91CF911F910F91FF90EF9016
:10068000DF90CF90BF90AF900895FC01A089B18911
:100690008C91A689B78982FD0FC09C91818D8F5F57
:1006A0008F73228D821749F0A18DAE0FBF2FB11D20
:1006B0005D969C93818F08958C910895FC01538DD4
:1006C000448D252F30E0842F90E0821B930B54172C
:1006D00010F0CF96089501970895FC01918D828DB9
:1006E000981761F0A28DAE0FBF2FB11D5D968C9152
:1006F000928D9F5F9F73928F90E008958FEF9FEF91
:100700000895EF92FF920F931F93CF93DF937B0196
:100710008C01D0E0C0E02FB7F8948091EC0D90915F
:10072000ED0DA091EE0DB091EF0D2FBF8093410F15
:100730009093420FA093430FB093440F89E39FE03F
:100740000E946D0397FF2CC02FB7F8948091EC0D99
:100750009091ED0DA091EE0DB091EF0D2FBF409156
:10076000410F5091420F6091430F7091440F841BD1
:10077000950BA60BB70B40913D0F50913E0F60912A
:100780003F0F7091400F84179507A607B707B0F287
:10079000CE01DF91CF911F910F91FF90EF900895BF
:1007A000F80181938F012196EC16FD0609F0B3CF75
:1007B000EFCFCF93DF9300D000D0CDB7DEB7198253
:1007C0001A821B821C8284E690E0A0E0B0E0809355
:1007D0003D0F90933E0FA0933F0FB093400F64E006
:1007E00070E0CE0101960E9481038981813051F42D
:1007F0008A818F3F39F48B818F3F21F481E09C8186
:100800009F3F09F080E00F900F900F900F90DF91C5
:10081000CF910895FC01918D828D981731F0828DD2
:10082000E80FF11D858D90E008958FEF9FEF0895FB
:10083000FC01918D228D892F90E0805C9F4F821B5F
:1008400091098F73992708958FEF9DE00E941804F6
:1008500021E0892B09F420E0822F08958CE99EE0A5
:100860000E94180421E0892B09F420E0822F0895CA
:1008700089E39FE00E94180421E0892B09F420E01D
:10088000822F089586ED9FE00E94180421E0892BB5
:1008900009F420E0822F0895FC01A48DA80FB92F40
:1008A000B11DA35ABF4F2C91848D90E001968F7398
:1008B0009927848FA689B7892C93A089B1898C91B7
:1008C000837080648C93938D848D981306C0028806
:1008D000F389E02D80818F7D80830895EF92FF92D0
:1008E0000F931F93CF93DF93EC0181E0888F9B8D53
:1008F0008C8D98131AC0E889F989808185FF15C00D
:100900009FB7F894EE89FF896083E889F98980812F
:100910008370806480839FBF81E090E0DF91CF91FE
:100920001F910F91FF90EF900895F62E0B8D10E020
:100930000F5F1F4F0F731127E02E8C8D8E110CC08F
:100940000FB607FCFACFE889F989808185FFF5CFDA
:10095000CE010E944C04F1CFEB8DEC0FFD2FF11D69
:10096000E35AFF4FF0829FB7F8940B8FEA89FB8917
:1009700080818062CFCF0C946E040F931F93CF932E
:10098000DF938C01C62F60EE70E086ED9FE00E9441
:10099000BB0465E270E086ED9FE00E94BB046AE163
:1009A00070E086ED9FE00E94BB046C2F86ED9FE017
:1009B0000E946E04E8010F5D1F4F699186ED9FE074
:1009C0000E946E04C017D107C1F7DF91CF911F912C
:1009D0000F910895CF93DF93EC01888D8823B9F0B0
:1009E000AA89BB89E889F9898C9185FD03C080813A
:1009F00086FD0DC00FB607FCF7CF8C9185FFF2CFB7
:100A0000808185FFEDCFCE010E944C04E9CFDF91BC
:100A1000CF91089580E090E0892B29F00E94420454
:100A200081110E94000080E090E0892B29F00E9453
:100A3000380481110E94000080E090E0892B29F0A9
:100A40000E942E0481110E94000080E090E0892B1A
:100A500029F00E94240481110C9400000895EF9263
:100A6000FF920F931F93CF93DF937C01C62F142F18
:100A700060EE70E086ED9FE00E94BB04D0E0BE0116
:100A80006D5F7F4F86ED9FE00E94BB04612F86ED76
:100A90009FE00E946E048701F80161918F0186ED4D
:100AA0009FE00E946E04C8018E199F098C179D0754
:100AB0009CF3DF91CF911F910F91FF90EF900895DC
:100AC000FC0127E030E080E041E050E09191992383
:100AD00039F0BA01022E01C0660F0A94EAF7862B9C
:100AE0002150310998F708958823C9F06623A9F0A9
:100AF000E82FF0E0E75DFC4F8081E62FF0E0E75D56
:100B0000FC4F9081890F9927991F6FEF70E00E9429
:100B10004911FC01E75DFD4F6081862F089560E07B
:100B2000FCCF4F925F926F927F928F929F92AF9283
:100B3000BF92CF92DF92EF92FF920F931F93CF93CA
:100B4000DF93CDB7DEB7C159D1400FB6F894DEBF01
:100B50000FBECDBF8C014B0153EFC52E5DE0D52EEE
:100B60005601712CF12CE12CD5016D905D016E24A4
:100B7000662D8EE00E947405EF2CE826662D88E332
:100B80000E947405F72CF826662D80E40E947405F7
:100B9000782EBCEFAB16BDE0BB0631F7E092F00D4E
:100BA000F092F10D8093F20D86E9E2E08E16910449
:100BB00009F489E9E826E092FC0DF826F092FD0D93
:100BC00087258093FE0D7E01F5ECEF0EF11C2FEFD3
:100BD0003DE0F701D6018D916D01982F991F99275E
:100BE000991F908386FB992790F9918385FB99271C
:100BF00090F9928384FB992790F9938383FB99273B
:100C000090F9948382FB992790F9958381FB99272A
:100C100090F996838170878338962A173B07D1F61F
:100C20002E01B7E74B1ABEEF5B0A89E0F201119281
:100C30008A95E9F79E012F5F3F4F84ECD9011D9201
:100C40008A95E9F7F90140E060E06111FBC06E01AF
:100C5000B5E0CB0ED11C58E0540F842F4F5F8E0DA2
:100C60009F2D911DDC018C91D6018D936D01842FF8
:100C70004513F4CF83819281682E69267181762590
:100C80007480868050859185D580B780A284C38486
:100C9000972C9824952699269726948697259D2506
:100CA0009B259A25962595878725882585278D2537
:100CB0008A258C2586875D25B526CB247C257787DC
:100CC0006F5F3F96693009F0C0CFFE01E757FF4FD5
:100CD000A90149565F4FB201675F7F4F6F01B8E8C6
:100CE000CB1AD108C201D6011196BC90DC01BD928D
:100CF000CD01BFE0CB0ED11C68177907A1F7D20157
:100D00008C911196CC901197C82615968C901597BA
:100D100013969C911397682C69261696DC9016976B
:100D200012969C9012977C2C79241496AC90149770
:100D300017969C9117971896BC90C624CD24C19203
:100D4000DA24D926D724D6869B2596259725958FF4
:100D5000882589258A258B2584A74E175F0709F0EA
:100D6000BDCF6901F0E0E0E044ECA42EB12CD60147
:100D70004D916D01CF01B5010E943511D701A80F2A
:100D8000B91F4C93EB54FF4FE439BAE8FB0779F7EE
:100D90006901ECEDCE1AEEEFDE0A5801C7010E94A0
:100DA0006005D5018D935D01B8E0EB0EF11CCE140A
:100DB000DF04A1F7CE018B5D9E4F0E946005F80114
:100DC00094859F73282F207C922B948725852C7FD8
:100DD00090E034E0959587953A95E1F78370822B02
:100DE00085876E01F7EDCF1AFEEFDF0A780185E106
:100DF000E80EF11C0F5D1F4FC6010E946005D70170
:100E00008D937D01B8E0CB0ED11C0E151F05A1F707
:100E100090E080E0CF56DE4F0FB6F894DEBF0FBEF5
:100E2000CDBFDF91CF911F910F91FF90EF90DF9099
:100E3000CF90BF90AF909F908F907F906F905F907A
:100E40004F9008956F01BFEFCB1ADB0A5BE0540FA0
:100E5000842F4F5F8E0D9F2D911DDC018C91D6014B
:100E60008D936D01842F4513F4CF04CFFB01806176
:100E7000282F880F330BD901AA0FBB1FA25CBB4FD1
:100E80006D917C918485807C84608487AB0155273B
:100E9000DA01B595A795B595A79595859F7066E0FC
:100EA000220F331F6A95E1F7922B8A2F8073982BBC
:100EB00095879389907FAF709A2B938B84898370E9
:100EC000A6E0440F551FAA95E1F7842B972F96951E
:100ED00096959C73892B848B0895EF92FF920F93C4
:100EE0001F93CF93DF938C018EE190E00E948811D5
:100EF000EC01892BC9F08CE1FE013296DF011D92D5
:100F00008A95E9F789E0809F7001819FF00C112498
:100F1000C7010E94881199838883009769F4CE01E4
:100F20000E942412D0E0C0E0CE01DF91CF911F914A
:100F30000F91FF90EF900895A70170E060E00E948C
:100F4000971389E090E09D838C831B830A831F8223
:100F50001E82198618861B861A868FE291E09D876D
:100F60008C8780E591E09F878E878BE591E0998B58
:100F7000888B86E691E09B8B8A8B84E791E09D8B42
:100F80008C8B82ED97E0998F888F8FE791E09F8B14
:100F90008E8B86E891E09B8F8A8F8CE098E09D8F06
:100FA0008C8FC2CFCF92DF92FF920F931F93CF937C
:100FB000DF93EC016B01FFB6F894EC85FD85099594
:100FC0008C0197FD1FC04C815D81049FC001059F6E
:100FD000900D149F900D112428813981B601820F44
:100FE000931F0E948E13EC89FD89CE010995811112
:100FF00004C0EE85FF85CE0109958A859B85019603
:101000009B878A87FFBEC801DF91CF911F910F9107
:10101000FF90DF90CF900895FF920F931F93CF938F
:10102000DF93EC018B01FFB6F894EC89FD890995FB
:10103000811129C04C815D812E813F81429FC00179
:10104000439F900D529F900D112468817981680F04
:10105000791FC8010E948E138A859B8501979B8703
:101060008A87EC89FD89CE010995811104C0E88940
:10107000F989CE010995FFBEC801DF91CF911F917B
:101080000F91FF90089510E000E0F5CFCF93DF932C
:10109000EC0189E39FE00E941804892B29F089E381
:1010A0009FE00E946D03F5CF209769F0FE0101904B
:1010B0000020E9F73197AF014C1B5D0BBE0189E3BE
:1010C0009FE00E9418036FEF70E089E39FE00E94A9
:1010D000BB046FEF70E089E39FE00E94BB046FEFF9
:1010E00070E089E39FE0DF91CF910C94BB040F93F4
:1010F0001F93CF93DF93EC0188819981009759F07A
:101100002A813B812617370730F081E0DF91CF91AC
:101110001F910F9108958B016F5F7F4F0E94AD1259
:10112000009759F0998388831B830A832C813D8122
:10113000232B59F7FC011082E8CF80E0E7CFEF9234
:10114000FF920F931F93CF93DF93FB010190002039
:10115000E9F73197E61BF70B6115710541F480E063
:10116000DF91CF911F910F91FF90EF9008953097ED
:10117000E1F07B018C01DC011496CD91DC91CE0F66
:10118000DF1FBE010E947708882349F3F801208100
:10119000318184819581B701820F931F0E949E1334
:1011A000D8011596DC93CE93149781E0D9CFEF92B6
:1011B000FF920F931F93CF93DF93CDB7DEB72E9798
:1011C0000FB6F894DEBF0FBECDBF7C018B011A862F
:1011D00019861C861B861E861D8664E070E0CE0183
:1011E00009960E94770829853A85811179C02115D1
:1011F000310519F0C9010E9424121A8619861E862B
:101200001D861C861B86F70162817381611571053D
:1012100021F0CE0109960E949F0865E576E0CE0197
:1012200009960E949F0889859A850E944608CE01EA
:10123000019628E0FC0111922A95E9F744E650E076
:1012400060E070E040933D0F50933E0F60933F0F7E
:101250007093400F68E070E00E948103089709F0E6
:1012600049C08981813709F045C08E818F3F09F0DF
:1012700041C08F818F3FF1F588858F3FD9F52D8152
:101280008C8190E0B0E0A0E0DC0199278827B22BA8
:101290002A81822B4B8150E0542F4427052E000CCD
:1012A000660B770B842B952BA62BB72BF80180832D
:1012B0009183A283B38311E089859A85009711F009
:1012C0000E942412812F2E960FB6F894DEBF0FBE17
:1012D000CDBFDF91CF911F910F91FF90EF900895B7
:1012E00084E090E09E878D8760E576E0C9010E94EA
:1012F0009E1389CF10E0E0CFAF92BF92CF92DF92E2
:10130000EF92FF920F931F93CF93DF93CDB7DEB78A
:1013100060970FB6F894DEBF0FBECDBF7C01D42E10
:10132000C52EB62EA72E8E010F5F1F4F8AE0F80143
:1013300011928A95E9F71C861B861E861D86188ADF
:101340001F8670E060E0CE010B960E9477082B8527
:101350003C85811151C02115310519F0C9010E9448
:1013600024121C861B86188A1F861E861D86AF9235
:10137000BF92CF92DF928AE596E09F938F931F935F
:101380000F930E94A513F701628173810FB6F89441
:10139000DEBF0FBECDBF6115710521F0CE010B96EA
:1013A0000E949F086EE576E0CE010B960E949F0892
:1013B000B801CE010B960E949F088B859C850E94E8
:1013C00046080E94D903182F8B859C85009711F041
:1013D0000E942412812F60960FB6F894DEBF0FBED4
:1013E000CDBFDF91CF911F910F91FF90EF90DF90D4
:1013F000CF90BF90AF900895188A1F8664E576E07D
:10140000C9010E949E13B3CF1F920F920FB60F9285
:1014100011242F933F938F939F93AF93BF9380910A
:10142000EC0D9091ED0DA091EE0DB091EF0D30917E
:10143000E70D23E0230F2D3758F50196A11DB11DAF
:101440002093E70D8093EC0D9093ED0DA093EE0D9E
:10145000B093EF0D8091E80D9091E90DA091EA0D08
:10146000B091EB0D0196A11DB11D8093E80D9093F5
:10147000E90DA093EA0DB093EB0DBF91AF919F9151
:101480008F913F912F910F900FBE0F901F90189545
:1014900026E8230F0296A11DB11DD2CF1F920F92F5
:1014A0000FB60F9211240BB60F922F933F934F93C9
:1014B0005F936F937F938F939F93AF93BF93EF93BC
:1014C000FF938FEF9DE00E944C04FF91EF91BF913D
:1014D000AF919F918F917F916F915F914F913F91CC
:1014E0002F910F900BBE0F900FBE0F901F9018956D
:1014F0001F920F920FB60F9211240BB60F922F93DB
:101500003F934F935F936F937F938F939F93AF938B
:10151000BF93EF93FF938FEF9DE00E944503FF91F0
:10152000EF91BF91AF919F918F917F916F915F915B
:101530004F913F912F910F900BBE0F900FBE0F90C8
:101540001F9018951F920F920FB60F9211240BB691
:101550000F922F933F934F935F936F937F938F934C
:101560009F93AF93BF93EF93FF938CE99EE00E940C
:101570004C04FF91EF91BF91AF919F918F917F911B
:101580006F915F914F913F912F910F900BBE0F90F4
:101590000FBE0F901F9018951F920F920FB60F92CB
:1015A00011240BB60F922F933F934F935F936F933A
:1015B0007F938F939F93AF93BF93EF93FF938CE9A8
:1015C0009EE00E944503FF91EF91BF91AF919F91E3
:1015D0008F917F916F915F914F913F912F910F90DC
:1015E0000BBE0F900FBE0F901F9018951F920F9279
:1015F0000FB60F9211240BB60F922F933F934F9378
:101600005F936F937F938F939F93AF93BF93EF936A
:10161000FF9389E39FE00E944C04FF91EF91BF91FB
:10162000AF919F918F917F916F915F914F913F917A
:101630002F910F900BBE0F900FBE0F901F9018951B
:101640001F920F920FB60F9211240BB60F922F9389
:101650003F934F935F936F937F938F939F93AF933A
:10166000BF93EF93FF9389E39FE00E944503FF91AF
:10167000EF91BF91AF919F918F917F916F915F910A
:101680004F913F912F910F900BBE0F900FBE0F9077
:101690001F9018951F920F920FB60F9211240BB640
:1016A0000F922F933F934F935F936F937F938F93FB
:1016B0009F93AF93BF93EF93FF9386ED9FE00E94BC
:1016C0004C04FF91EF91BF91AF919F918F917F91CA
:1016D0006F915F914F913F912F910F900BBE0F90A3
:1016E0000FBE0F901F9018951F920F920FB60F927A
:1016F00011240BB60F922F933F934F935F936F93E9
:101700007F938F939F93AF93BF93EF93FF9386ED58
:101710009FE00E944503FF91EF91BF91AF919F9190
:101720008F917F916F915F914F913F912F910F908A
:101730000BBE0F900FBE0F901F901895EFEFFDE0BE
:101740001382128248EE53E060E070E044835583D8
:101750006683778382E496E09183808325E331E09A
:101760003587248724E331E03787268720E331E07B
:10177000318B208B21E331E0338B228B22E331E06C
:10178000358B248B26E331E0378B268B118E128E1E
:10179000138E148EECE9FEE013821282448355838B
:1017A000668377839183808325ED30E035872487B6
:1017B00024ED30E03787268720ED30E0318B208B19
:1017C00021ED30E0338B228B22ED30E0358B248B02
:1017D00026ED30E0378B268B118E128E138E148EF1
:1017E000E9E3FFE0138212824483558366837783A3
:1017F000918380832DEC30E0358724872CEC30E01A
:101800003787268728EC30E0318B208B29EC30E0BD
:10181000338B228B2AEC30E0358B248B2EEC30E09E
:10182000378B268B118E128E138E148EE6EDFFE011
:1018300013821282448355836683778391838083E6
:1018400085EC90E09587848784EC90E09787868785
:1018500080EC90E0918B808B81EC90E0938B828B7D
:1018600082EC90E0958B848B86EC90E0978B868B56
:10187000118E128E138E148EEFE8F0E1108281E04B
:10188000818384E696E09383828315821482118695
:1018900010861386128617821682E3E8F0E1108222
:1018A00082E0818389E696E09383828315821482A5
:1018B000118610861386128617821682E7E7F0E1FA
:1018C000108283E081838FE696E093838283158282
:1018D000148211861086138612861782168283E080
:1018E00090E00E946D0790937610809375108FE0C2
:1018F00090E00E946D079093741080937310089588
:10190000CF93DF93CDB7DEB7AE970FB6F894DEBFB7
:101910000FBECDBF789484B5826084BD84B58160EC
:1019200084BD85B5826085BD85B5816085BD8091AA
:101930006E00816080936E00109281008091810022
:10194000826080938100809181008160809381001A
:10195000809180008160809380008091B1008460DC
:101960008093B1008091B00081608093B00080913D
:1019700091008260809391008091910081608093BA
:101980009100809190008160809390008091A100EF
:1019900082608093A1008091A10081608093A1006A
:1019A0008091A00081608093A000809121018260DD
:1019B0008093210180912101816080932101809198
:1019C000200181608093200180917A00846080935F
:1019D0007A0080917A00826080937A0080917A0008
:1019E000816080937A0080917A00806880937A0089
:1019F0001092C10040E855E260E070E089E39FE0AA
:101A00000E94B90184E596E00E94460885E796E0C9
:101A10000E9446080E94D9038DE796E00E9446087E
:101A20000E94D90361E086E30E94900261E087E3AF
:101A30000E94900261E088E30E94900261E089E3E5
:101A40000E94900261E08AE30E94900261E08BE3D1
:101A50000E94900261E08FE30E94900260E08EE3BA
:101A60000E94900260E080E40E94900261E081E4C4
:101A70000E94900261E082E40E94900240E052ECF9
:101A800061E070E086ED9FE00E94B90186ED9FE085
:101A90000E94EA0440E052EC61E070E08CE99EE0D4
:101AA0000E94B9018CE99EE00E94EA0440E052ECF9
:101AB00061E070E08FEF9DE00E94B9018FEF9DE043
:101AC0000E94EA0460E086E30E94620260E088E32C
:101AD0000E94620260E088E30E94620260E089E3A3
:101AE0000E94620261E081E40E94620260E08FE392
:101AF0000E94620268EC70E080E090E00E94E602E2
:101B000061E08FE30E94620268EC70E080E090E0A8
:101B10000E94E60261E670E08FEF9DE00E94BB0448
:101B200070E060E08FEF9DE00E94BB0461E070E038
:101B30008FEF9DE00E94BB0470E060E08FEF9DE0BE
:101B40000E94BB0463E370E08FEF9DE00E94BB0442
:101B500062E370E080E090E00E94E60261E670E0FF
:101B60008FEF9DE00E94BB0470E060E08FEF9DE08E
:101B70000E94BB046DE070E08FEF9DE00E94BB040B
:101B800070E060E08FEF9DE00E94BB046AE070E0CF
:101B90008FEF9DE00E94BB0464E070E08FEF9DE05A
:101BA0000E94BB0461E370E08FEF9DE00E94BB04E4
:101BB00067E070E08FEF9DE00E94BB0464E570E099
:101BC0008FEF9DE00E94BB0464E270E08FEF9DE028
:101BD0000E94BB0470E060E08FEF9DE00E94BB04B8
:101BE00070E060E08FEF9DE00E94BB0470E060E079
:101BF0008FEF9DE00E94BB0470E060E08FEF9DE0FE
:101C00000E94BB0470E060E08FEF9DE00E94BB0487
:101C10006FE670E08FEF9DE00E94BB0468E470E027
:101C20008FEF9DE00E94BB0464EF71E080E090E0E4
:101C30000E94E60244EA5CE26FE170E087E790E12F
:101C40000E947C0940ED5CE26FE170E083E890E186
:101C50000E947C099FE19093F60D8CE28093F70D32
:101C600024EA2093F80D9093F90D8093FA0D80EDFE
:101C70008093FB0D1092F50D1092F40DBE016F5F75
:101C80007F4F8FE890E10E94D70849815A816B818C
:101C90007C818091F30D807C452B462B472B09F0EE
:101CA00069C08093F30D7E018BE2E80EF11C27E3FF
:101CB000222E312C30E3432E34E0532E3E0198E2A5
:101CC000690E711C5E01AAE0AA0EB11C47E3842EC6
:101CD000912CEEEFF1E08491E8EBF1E00491E2E782
:101CE000F1E01491112309F447C081110E94FD0114
:101CF000E12FF0E0EE0FFF1FEC51FF4FA591B491E3
:101D00008C910823C9F18091710D9091720D01970A
:101D100061F562E070E0CE0101960E949105BE017E
:101D20006F5F7F4F82E00E943607DE011E9609E258
:101D300014E020E334E06D91F80181918F01F90105
:101D400091919F01AD014150510980958623892BC6
:101D5000FA018083F4E000331F0769F762E4CE01E3
:101D600001960E94BD041092700D1092720D109297
:101D7000710D86C0836095CF8091710D9091720D29
:101D8000892B09F077C01BA61CA61DA61EA61AA2A9
:101D90001BA21CA21DA2B70187E790E10E94D708F1
:101DA000BE016E5D7F4F83E890E10E94D708B701C6
:101DB00087E790E10E94D708BE016E5D7F4F83E800
:101DC00090E10E94D7088BA59CA52DA52093F60D28
:101DD0009093F70D8093F80D8AA19BA12CA12093DD
:101DE000F90D9093FA0D8093FB0D19821A821B82D4
:101DF0001C82BE016F5F7F4F8FE890E10E94D70881
:101E000049815A816B817C818091F30D807C452BC7
:101E1000462B472B09F080C08093F30D61E070E002
:101E2000CE0101960E949105BE016F5F7F4F81E058
:101E30000E943607DE011E9609E214E020E334E03A
:101E40006D91F80181918F01F90191919F01AD018F
:101E50004150510980958623892BFA018083F4E053
:101E600000331F0769F761E4CE0101960E94BD04AB
:101E70001092700D81E090E09093720D8093710D3F
:101E800086ED9FE00E941804181619060CF0A1C0F8
:101E900086ED9FE00E946D03E091E50DF091E60D67
:101EA000E355F24F80838091E50D9091E60D019608
:101EB0009093E60D8093E50D8091E50D9091E60DF0
:101EC000C89724F03092E60D2092E50D8091AD0D7B
:101ED000803E21F01092E60D1092E50D8091AD0D3F
:101EE000803E71F62091AE0D8091E50D9091E60D4A
:101EF0002817190629F68091AF0D813009F499C091
:101F000068F0853088F48091AF0D80930A0240E735
:101F100064E087E092E006C083607ECF40E06AE044
:101F200083E192E00E942F058091AD0D803E09F083
:101F30004CC08091AE0D853209F047C08091AF0D45
:101F40008A3109F042C08091731090917410DC01C5
:101F50005896ED91FC9161EB7DE009958091BA0D69
:101F600089838091BB0D8A838091BC0D8B83809186
:101F7000BD0D8C838091BE0D9091C40D807F9F70AC
:101F8000892B8D838091C50D8E838091C60D8F83A3
:101F90008091C70D88878091C80D898780917310C3
:101FA00090917410DC015896ED91FC91BE016F5F29
:101FB0007F4F09958091731090917410DC015896B1
:101FC000ED91FC9169EC7DE009951092E60D10927F
:101FD000E50D8FEF9DE00E9418041816190634F5E0
:101FE0008FEF9DE00E946D03E091AB0DF091AC0D81
:101FF000ED58F24F80838091AB0D9091AC0D01961E
:102000009093AC0D8093AB0D8091AB0D9091AC0D86
:10201000C89724F09092AC0D8092AB0D8091730D17
:10202000813619F11092AC0D1092AB0D0E940A0589
:1020300050CE8091710D9091720D80930D02809120
:10204000731090917410DC015696ED91FC910995F6
:1020500063E070E00E94351185E0861B80931002DA
:1020600041E068E08BE092E05DCF8091AB0D909114
:10207000AC0D0F970CF4ADCF1092AC0D1092AB0DD0
:102080001092730D8091740D8111A3CF8091750D05
:102090008B3009F09ECF8091760D813009F099CF79
:1020A0008091770D813009F094CF8091780D88343C
:1020B00009F08FCF8091710D9091720D892BE1F510
:1020C0008091731090917410DC015696ED91FC9103
:1020D0000995892B09F4AACF86E0E3E2F2E0DE015C
:1020E000929601900D928A95E1F7809173109091EC
:1020F0007410DC015C96ED91FC91BE016F5F7F4F27
:1021000009958E010E5D1F4FF80161918F018FEFD0
:102110009DE00E946E0460167106B1F78E010F5F9C
:102120001F4FD8016D918D018FEF9DE00E946E04CD
:10213000A016B106B1F77ACF809175109091761004
:10214000DC015896ED91FC9169E77DE0099580915D
:10215000751090917610DC015296ED91FC910995E5
:10216000882309F463CF8091751090917610DC017B
:102170005C96ED91FC91BE016E5D7F4F0995FE016D
:10218000B2966F01B1978601D8018D918D0181932F
:10219000EA16FB06C9F78091751090917610DC0164
:1021A0005C96ED91FC91BE016E5D7F4F09958AA111
:1021B0008A878BA18B878CA18C878DA18D878EA11F
:1021C000982F907F9E878F708C8B8FA18D8B88A589
:1021D0008E8B89A58F8B8AA5888F809175109091A1
:1021E0007610DC015C96ED91FC91BE016E5D7F4F37
:1021F0000995FE017996D6018D916D0181930A179B
:102200001B07C9F71091700D11111CC0DE011E963D
:1022100089E2C82E84E0D82E87E394E06D91F60120
:1022200041916F01FC015191CF019D012150310974
:1022300040954623452BF90140834C145D0471F70A
:1022400060E206C01F86188A198A1A8A1B8A612FC3
:10225000CE0101960E94BD04163019F41092700D43
:10226000E5CE1F5F1093700DE1CEAA1BBB1B51E1A1
:1022700007C0AA1FBB1FA617B70710F0A61BB70BF6
:10228000881F991F5A95A9F780959095BC01CD019B
:10229000089597FB072E16F4009407D077FD09D018
:1022A0000E94351107FC05D03EF4909581959F4F13
:1022B0000895709561957F4F0895A1E21A2EAA1B8B
:1022C000BB1BFD010DC0AA1FBB1FEE1FFF1FA217E6
:1022D000B307E407F50720F0A21BB30BE40BF50BE3
:1022E000661F771F881F991F1A9469F7609570956C
:1022F000809590959B01AC01BD01CF010895EE0F33
:10230000FF1F0024001C0BBE0790F691E02D0994DE
:102310000F931F93CF93DF938230910510F482E0E7
:1023200090E0E0919D10F0919E1030E020E0B0E050
:10233000A0E0309799F42115310509F44AC0281B13
:10234000390B24303105D8F58A819B8161157105DF
:1023500089F1FB0193838283FE0111C04081518189
:102360000281138148175907E0F04817590799F47B
:10237000109761F012960C93129713961C93329655
:10238000CF01DF91CF911F910F91089500939D1080
:1023900010939E10F4CF2115310551F042175307C9
:1023A00038F0A901DB019A01BD01DF01F801C1CFBD
:1023B000EF01F9CF90939E1080939D10CDCFFE0139
:1023C000E20FF31F819391932250310939832883BF
:1023D000D7CF20919B1030919C10232B41F420915A
:1023E0001F023091200230939C1020939B1020916B
:1023F0001D0230911E022115310541F42DB73EB763
:102400004091210250912202241B350BE0919B1038
:10241000F0919C10E217F307A0F42E1B3F0B281736
:10242000390778F0AC014E5F5F4F2417350748F04D
:102430004E0F5F1F50939C1040939B10819391937C
:102440009FCFF0E0E0E09CCFCF93DF930097E9F0DF
:10245000FC01329713821282A0919D10B0919E10C0
:10246000ED0130E020E01097A1F420813181820F4E
:10247000931F20919B1030919C102817390709F069
:1024800061C0F0939C10E0939B10DF91CF91089571
:10249000EA01CE17DF07E8F54A815B819E0141150D
:1024A0005105B1F7E901FB83EA8349915991C40FC2
:1024B000D51FEC17FD0761F4808191810296840F8E
:1024C000951FE90199838883828193819B838A8305
:1024D000F0E0E0E012968D919C9113970097B9F58A
:1024E0002D913C911197CD010296820F931F20915F
:1024F0009B1030919C102817390739F6309751F509
:1025000010929E1010929D10B0939C10A0939B105F
:10251000BCCFD383C28340815181840F951FC817DC
:10252000D90761F44E5F5F4F88819981480F591F29
:10253000518340838A819B81938382832115310556
:1025400009F0B0CFF0939E10E0939D109ECFFD0157
:10255000DC01C0CF13821282D7CF4F925F926F926D
:102560007F928F929F92AF92BF92CF92DF92EF9223
:10257000FF920F931F93CF93DF938C01009799F4F1
:10258000CB01DF91CF911F910F91FF90EF90DF90E2
:10259000CF90BF90AF909F908F907F906F905F9003
:1025A0004F900C948811FC01E60FF71F9C012250FC
:1025B0003109E217F30708F4AEC0D901CD91DC91DF
:1025C0001197C617D70720F1C530D10578F0CE0195
:1025D00004978617970750F0C61BD70B2297C19315
:1025E000D1936D937C93CF010E942412C801DF9197
:1025F000CF911F910F91FF90EF90DF90CF90BF9000
:10260000AF909F908F907F906F905F904F900895C4
:102610005B01AC1ABD0A4C018C0E9D1EA0919D1051
:10262000B0919E10512C412CF12CE12C109731F5DA
:1026300080919B1090919C108815990509F05CC0C1
:102640004616570608F058C080911D0290911E0250
:10265000009741F48DB79EB740912102509122021C
:10266000841B950BE817F90708F055C0F0939C10F0
:10267000E0939B10F90171836083B8CF8D919C9199
:10268000119712966C90129713967C901397A81539
:10269000B90559F56C0142E0C40ED11CCA14DB0423
:1026A00020F1AC014A195B09DA011296159780F006
:1026B0006282738251834083D9016D937C93E114CC
:1026C000F10471F0D7011396FC93EE9312978ECF1D
:1026D00022968C0F9D1FF90191838083F301EFCF28
:1026E000F0939E10E0939D1081CF4816590608F490
:1026F0002C017D01D3019ACFCB010E9488117C016E
:10270000009749F0AE01B8010E948E13C8010E94E3
:10271000241287016BCF10E000E068CFFB01DC01E1
:1027200002C001900D9241505040D8F70895DC014D
:1027300001C06D9341505040E0F70895FB01DC016A
:1027400001900D920020E1F708950F931F93CF930E
:10275000DF93CDB7DEB72E970FB6F894DEBF0FBE6E
:10276000CDBF0D891E8986E08C831A8309838FEF84
:102770009FE79E838D83AE01475E5F4F6F89788DA3
:10278000CE0101960E94D5132F813885020F131FA9
:10279000F80110822E960FB6F894DEBF0FBECDBFA3
:1027A000DF91CF911F910F9108952F923F924F92F9
:1027B0005F926F927F928F929F92AF92BF92CF92D1
:1027C000DF92EF92FF920F931F93CF93DF93CDB7DA
:1027D000DEB72B970FB6F894DEBF0FBECDBF7C01DE
:1027E0003B018A01FC0117821682838181FFDDC1D2
:1027F000CE0101965C01F7019381F30193FD859170
:1028000093FF81913F01882309F453C1853239F444
:1028100093FD859193FF81913F01853229F4B701A2
:1028200090E00E94EE15E7CF912C212C312CFFE196
:10283000F31538F08B3211F190F4803209F18332C4
:1028400029F137FC3CC020ED280F2A3050F536FE28
:1028500020C08AE0989E200D1124922E06C08D3251
:1028600091F0803371F7689430F8F30193FD85910E
:1028700093FF81913F018111DACF21C0689431F833
:10288000689432F8F2CF689433F8EFCF689434F854
:10289000ECCFEAE02E9E200D1124222E689435F80C
:1028A000E4CF8E3229F436FC04C1689436F8DDCFCB
:1028B0008C3619F4689437F8D8CF8836B1F2982F4F
:1028C0009F7D95549330E0F08336A1F18337C1F1B9
:1028D000833509F063C02801F2E04F0E511CF80166
:1028E000C080D180692D70E036FC02C06FEF7FEFB1
:1028F000C6010E94D8154C01689437F882010AC0BD
:102900000C5F1F4FFFE3F98388248394912C6501AA
:10291000E89437F833FE2DC0522C8114910471F5E0
:10292000552009F468CFB70180E290E00E94EE15CF
:102930005A94F6CFF801808189830E5F1F4FE4CF50
:102940002801F2E04F0E511CF801C080D180692DA2
:1029500070E036FC02C06FEF7FEFC6010E94E31506
:102960004C018201D5CFB70180E290E00E94EE15C4
:102970002A942814190409F0B0F7CECFF60137FCD9
:10298000859137FE81916F01B70190E00E94EE15AD
:1029900051105A94F1E08F1A9108BFCF843619F084
:1029A000893609F077C0F80137FE6BC0608171810C
:1029B000828193810C5F1F4FF32DFF763F2E97FF8F
:1029C00009C090958095709561957F4F8F4F9F4F6F
:1029D000689437F82AE030E0A5010E941E16C82E40
:1029E000CA188C2C432C36FE0CC0E89440F8C9144D
:1029F00040F434FE05C032FC03C0F32DFE7E4F2EA2
:102A0000892C44FEAAC0FE01EC0DF11D80818033AB
:102A100009F09CC0242D297E422E842D8870582ECA
:102A200043FCAAC040FEA4C09C2C821418F42C0CB9
:102A3000922C981844FEA6C0B70180E390E00E9453
:102A4000EE1542FE09C088E790E041FE02C088E52D
:102A500090E0B7010E94EE15C91408F49FC0CA9413
:102A6000D12C9FEFC91AD90ACA0CDB1CF60182913E
:102A70006F01B70190E00E94EE15AC14BD04B1F7F0
:102A80004FCF60817181072E000C880B990B0E5F70
:102A90001F4F92CFD32CE894D4F82AE030E085374A
:102AA000E1F1232D297FD22E8F36A9F1F0F488355C
:102AB00051F1F701868197812B960FB6F894DEBF0E
:102AC0000FBECDBFDF91CF911F910F91FF90EF907F
:102AD000DF90CF90BF90AF909F908F907F906F903E
:102AE0005F904F903F902F900895803749F088373E
:102AF00001F7D4FE02C06894D2F820E130E00DC0A6
:102B00006894D4F8F6CF34FE03C0822F8660D82EA6
:102B100020E132E002C028E030E0F801D7FE0FC02B
:102B200060817181828193810C5F1F4FA5010E949A
:102B30001E16C82ECA183D2CE89437F852CF608173
:102B4000718190E080E00E5F1F4FF0CF42FC02C029
:102B5000839463CF8394839460CF842D867809F423
:102B60005CCFF6CFB70180E290E00E94EE1583942F
:102B70008214C0F3512C5ECF522C5818821408F4E2
:102B800059CFF8CF842D867809F466CF8BE241FEC9
:102B900080E247FC8DE2B70190E05CCFB70180E3B3
:102BA00090E00E94EE159A9457CF8FEF9FEF84CF5D
:102BB000FC010590615070400110D8F78095909508
:102BC0008E0F9F1F0895FC0161507040019001100D
:102BD000D8F7809590958E0F9F1F08950F931F93A0
:102BE000CF93DF93182F092FEB018B8181FD09C053
:102BF0001FEF0FEF812F902FDF91CF911F910F913A
:102C0000089582FF14C02E813F818C819D812817F9
:102C100039073CF4E881F981CF01019699838883D3
:102C200010838E819F8101969F838E83E3CFE885F9
:102C3000F985812F0995892BA1F3DACFFA01AA270B
:102C4000283051F1203181F1E8946F936E7F6E5FEF
:102C50007F4F8F4F9F4FAF4FB1E03ED0B4E03CD09D
:102C6000670F781F891F9A1FA11D680F791F8A1F80
:102C7000911DA11D6A0F711D811D911DA11D20D0E7
:102C800009F468943F912AE0269F11243019305DA1
:102C90003193DEF6CF010895462F4770405D419392
:102CA000B3E00FD0C9F7F6CF462F4F70405D4A33DF
:102CB00018F0495D31FD4052419302D0A9F7EACFA7
:102CC000B4E0A6959795879577956795BA95C9F7D6
:102CD00000976105710508959B01AC010A2E0694C9
:102CE0005795479537952795BA95C9F7620F731F82
:0C2CF000841F951FA01D0895F894FFCFCD
:102CFC0001000100010001E004700003020000006B
:102D0C00030001E00A000144564D45474100009F75
:102D1C0010800061000B01014801020408102040E2
:102D2C00801D3A74E8CD8713264C982D5AB475EA59
:102D3C00C98F03060C183060C09D274E9C254A9401
:102D4C00356AD4B577EEC19F23468C050A142850FA
:102D5C00A05DBA69D2B96FDEA15FBE61C2992F5E68
:102D6C00BC65CA890F1E3C78F0FDE7D3BB6BD6B1AE
:102D7C007FFEE1DFA35BB671E2D9AF43861122443B
:102D8C00880D1A3468D0BD67CE811F3E7CF8EDC724
:102D9C00933B76ECC5973366CC85172E5CB86DDA11
:102DAC00A94F9E214284152A54A84D9A2952A45504
:102DBC00AA49923972E4D5B773E6D1BF63C6913F85
:102DCC007EFCE5D7B37BF6F1FFE3DBAB4B963162D0
:102DDC00C495376EDCA557AE4182193264C88D0795
:102DEC000E1C3870E0DDA753A651A259B279F2F946
:102DFC00EFC39B2B56AC458A09122448903D7AF4BC
:102E0C00F5F7F3FBEBCB8B0B162C58B07DFAE9CF17
:102E1C00831B366CD8AD478E010000011902321AA3
:102E2C00C603DF33EE1B68C74B0464E00E348DEF32
:102E3C00811CC169F8C8084C71058A652FE1240F03
:102E4C002135938EDAF01282451DB5C27D6A27F9C1
:102E5C00B9C99A09784DE472A606BF8B6266DD305B
:102E6C00FDE29825B31091228836D094CE8F96DB54
:102E7C00BDF1D2135C833846401E42B6A3C3487ED4
:102E8C006E6B3A2854FA85BA3DCA5E9B9F0A157937
:102E9C002B4ED4E5AC73F3A7570770C0F78C806347
:102EAC000D674ADEED31C5FE18E3A5997726B8B457
:102EBC007C114492D92320892E373FD15B95BCCF0E
:102ECC00CD908797B2DCFCBE61F256D3AB142A5D71
:102EDC009E843C3953476D41A21F2D43D8B77BA428
:102EEC0076C41749EC7F0C6FF66CA13B52299D55AB
:102EFC00AAFB6086B1BBCC3E5ACB595FB09CA9A053
:102F0C00510BF516EB7A752CD74FAED5E9E6E7AD3C
:102F1C00E874D6F4EAA85058AF0FFFFFFFFFFFF09C
:102F2C000D5D7F77FD757007F7D5DD57DFD000009D
:102F3C008EB093E01D50A97027C03A90B420DC608D
:102F4C0052D04F80C1307510FBA0E6F0684036704F
:102F5C00B8C0A5902B209F0011B00CE08250EA1055
:102F6C0064A079F0F7404360CDD0D0805E306CD057
:102F7C00E260FF307180C5A04B105640D8F0B0B065
:102F8C003E002350ADE019C097708A2004905AA0DF
:102F9C00D410C94047F0F3D07D606030EE8086C01D
:102FAC00087015209B902FB0A100BC5032E0D99036
:102FBC0057204A70C4C070E0FE50E3006DB005F0BD
:102FCC008B40961018A0AC8022303F60B1D0EFE05F
:102FDC0061507C00F2B04690C820D5705BC0338045
:102FEC00BD30A0602ED09AF01440091087A0B540D7
:102FFC003BF026A0A8101C3092808FD00160692075
:10300C00E790FAC07470C0504EE053B0DD008330CE
:10301C000D8010D09E602A40A4F0B9A037105F50EC
:10302C00D1E0CCB04200F620789065C0EB703DA0AA
:10303C00B310AE4020F094D01A6007308980E1C004
:10304C006F707220FC9048B0C600DB5055E00BD07E
:10305C00856098301680A2A02C103140BFF0D7B0FC
:10306C0059004450CAE07EC0F070ED20639051705E
:10307C00DFC0C2904C20F80076B06BE0E5508D10AC
:10308C0003A01EF090402460AAD0B78039306700AE
:10309C00E9B0F4E07A50CE7040C05D90D320BB60B4
:1030AC0035D02880A63012109CA081F00F40E4305F
:1030BC006A8077D0F9604D40C3F0DEA050103850D4
:1030CC00B6E0ABB0250091201F9002C08C70D240AE
:1030DC005CF041A0CF107B30F580E8D066600E200C
:1030EC0080909DC01370A75029E034B0BA0088E0DE
:1030FC0006501B0095B02190AF20B2703CC054809C
:10310C00DA30C76049D0FDF073406E10E0A0BE907D
:10311C0030202D70A3C017E0995084000AB062F0E3
:10312C00EC40F1107FA0CB8045305860D6D0000029
:10313C0000006E0418035E03EA0418046D030A040D
:10314C0067657420002E76616C00256C75002E76F8
:10315C00616C3D00666C636F00737263696400643C
:10316C007374696400626B636D643D3100706167F8
:04317C00652030009A
:00000001FF
